:020000040800F2
:10000000B805002001010008351500082D1500086D
:100010003115000899010008491C00080000000083
:100020000000000000000000000000005919000856
:100030009D010008000000002D190008B3190008F8
:100040001B0100081B0100081B0100081B01000820
:100050001B0100081B0100081B0100081B01000810
:100060001B0100081B0100089F0100081B0100087C
:100070001B0100081B0100081B0100081B010008F0
:100080001B0100081B0100081B0100081B010008E0
:100090001B0100081B0100081B010008A901000842
:1000A0001B0100081B0100081B0100081B010008C0
:1000B0001B010008BD1900081B0100081B010008F6
:1000C0001B0100081B0100081B0100081B010008A0
:1000D0001B0100082D1C00081B0100081B01000863
:1000E0001B0100081B0100081B010008DFF80CD0F1
:1000F00000F040F800480047D51E0008B805002071
:100100000648804706480047FEE7FEE7FEE7FEE7B1
:10011000FEE7FEE7FEE7FEE7FEE7FEE7BB190008A5
:10012000ED000008D2B201E000F8012B491EFBD21D
:1001300070470022F6E710B513460A4604461946F2
:10014000FFF7F0FF204610BD30B50B4601460020FA
:100150002022012409E021FA02F59D4205D303FA89
:1001600002F5491B04FA02F52844151EA2F101020A
:10017000F1DC30BD064C074D06E0E06840F00103BD
:1001800094E8070098471034AC42F6D3FFF7B2FF6B
:10019000489600086896000800BFFEE7704710B553
:1001A000102000F0D1F810BD10B5202000F0CCF8E0
:1001B00010BD0146002291F82100022808D0042039
:1001C000886300BF002081F8200000BF0120704735
:1001D0000868006820F00E000B6818600868006866
:1001E00020F001000B68186091F840300120984021
:1001F000CB6B5860012081F8210000BF002081F8FE
:10020000200000BF1046E2E770B50446002594F8D0
:100210002100022803D00420A063012548E02068C3
:10022000006820F00E00216808602068006820F057
:100230000100216808601F492068884201D101201F
:1002400026E01C4914312068884201D110201FE0AB
:10025000184928312068884201D1801518E01549D5
:100260003C312068884201D1801411E0114950319D
:100270002068884202D14FF4803009E00D49643192
:100280002068884202D14FF4801001E04FF0807066
:10029000084908394860012084F8210000BF002087
:1002A00084F8200000BF606B10B12046616B884766
:1002B000284670BD0800024070B5044600F0FAF907
:1002C00006462546681C10B104480078054400BF66
:1002D00000F0F0F9801BA842FAD370BD0C0000209A
:1002E00010B50446642001F0B7FD102C02D0202C7C
:1002F00024D110E00A2001F0AFFD1021104800F0D9
:10030000C1F938B90F48006808B9012000E00020A1
:100310000C49086012E00A2001F09EFD20210848E7
:1003200000F0B0F948B90748001D006808B901207D
:1003300000E000200349091D086000BF00BF10BD98
:10034000000801408001214210B5044604480068BD
:10035000204020B1024804602046FFF7C1FF10BDD5
:10036000140401402DE9F8470346002294466EE14B
:100370004FF0010808FA02F4D1F8008008EA0400FE
:10038000A0427DD1DFF8DCA2D1F80480A8EB0A09F5
:10039000D0453AD014DCB8F1030F50D009DCB8F1E5
:1003A000000F31D0B8F1010F1CD0B8F1020F49D1C4
:1003B00020E0B8F1110F18D0B8F1120F42D11EE0B1
:1003C000B9F5881F25D006DCB9F5803F20D0B9F5F6
:1003D000801F37D11AE0B9F5001F18D0B9F5041FF6
:1003E00030D117E0D1F80CC02DE0D1F80C8008F125
:1003F000040C28E0D1F80C8008F1080C23E0D1F8B7
:100400000C8008F10C0C1EE000BF00BF00BF00BF55
:1004100000BF00BFD1F80880B8F1000F02D14FF043
:10042000040C0BE0D1F80880B8F1010F03D14FF0B4
:10043000080C1C6102E04FF0080C5C6103E04FF017
:10044000000C00E000BF00BFFF2801D8984601E083
:1004500003F104084646FF2802D84FEA820803E069
:10046000A2F108084FEA88084746D6F800804FF006
:100470000F0909FA07F928EA09080CFA07F900E058
:1004800088E048EA0908C6F80080D1F8048008F03E
:100490008058B8F1805F7DD100BFDFF8CC81D8F8FB
:1004A000188048F00108DFF8C091C9F81880C846E4
:1004B000D8F8188008F00108CDF8008000BF00BF10
:1004C0004FEAB9384FEA920958F829504FEA827832
:1004D0004FEA18794FF00F0808FA09F825EA0805DD
:1004E000DFF88881434502D14FF0000816E0DFF8BD
:1004F0008081434502D14FF001080FE0DFF874819D
:10050000434502D14FF0020808E0DFF86C81434513
:1005100002D14FF0030801E04FF004084FEA82795E
:100520004FEA197908FA09F848EA0505DFF84C811D
:100530004FEA920948F82950D1F8048008F480382D
:10054000B8F5803F0AD1DFF83881D8F8008048EA52
:100550000008DFF82C91C9F8008009E0DFF820815D
:10056000D8F8008028EA0008DFF81491C9F8008064
:10057000D1F8048008F40038B8F5003F10D1DFF856
:10058000008108F10408D8F8008048EA0008DFF884
:10059000F09000E05AE009F10409C9F800800DE08C
:1005A000DFF8DC8008F10408D8F8008028EA0008A9
:1005B000DFF8CC9009F10409C9F80080D1F8048073
:1005C00008F48018B8F5801F0ED1DFF8B48008F168
:1005D0000808D8F8008048EA0008DFF8A49009F17C
:1005E0000809C9F800800DE0DFF8948008F10808D8
:1005F000D8F8008028EA0008DFF8849009F108099B
:10060000C9F80080D1F8048008F40018B8F5001F7C
:100610000ED1DFF86C8008F10C08D8F8008048EAA9
:100620000008DFF85C9009F10C09C9F800800DE0C2
:10063000DFF84C8008F10C08D8F8008028EA0008A0
:10064000DFF83C9009F10C09C9F80080521CD1F880
:10065000008028FA02F8B8F1000F7FF489AEBDE8F7
:10066000F88700000000111000100240000801404F
:10067000000C01400010014000140140080001403E
:1006800000040140024693680B400BB1012000E0DA
:100690000020704710B5C26821EA020302EA010493
:1006A00043EA0443036110BD0AB1016101E00B0498
:1006B0000361704701480068704700000400002093
:1006C00003480068034909780844014908607047F5
:1006D000040000200C00002010B50848006840F01D
:1006E000100006490860032000F098F80F2000F081
:1006F00007F800F02BF8002010BD00000020024099
:1007000070B504460E4800784FF47A71B1FBF0F0F2
:100710000C490968B1FBF0F5284600F0E9FB08B187
:10072000012070BD102C07D200222146501E00F07F
:1007300037F80548046001E00120F2E70020F0E707
:100740000C000020000000200800002008B500BFB9
:100750001148806940F001000F49886108468069AE
:1007600000F00100009000BF00BF00BF0846C06954
:1007700040F08050C8610846C06900F08050009089
:1007800000BF00BF00BF0549486820F0E06040F0AE
:100790000070486000BF08BD00100240000001402A
:1007A0002DE9F05F80460D461646002700F0C4FE96
:1007B000074639462A46334601F00700C0F1070ACA
:1007C000BAF1040F02D94FF0040A01E0C0F1070AA0
:1007D000D14600F1040ABAF1070F02D24FF0000A25
:1007E00001E0A0F1030AD4464FF0010A0AFA09FA1F
:1007F000AAF1010A0AEA020A0AFA0CFA4FF0010BFE
:100800000BFA0CFBABF1010B0BEA030B4AEA0B04EE
:100810002146404600F098FEBDE8F09F00BF00F082
:100820000702064B19684FF6FF031940044B0B43B0
:1008300043EA0221014B196000BF70470CED00E054
:100840000000FA0570B504460D460CB9012070BDD4
:100850005A48006800F00700A8420ED257480068C6
:1008600020F007002843554908600846006800F05A
:100870000700A84201D00120E9E7207800F002003B
:1008800002281DD1207800F00400042805D14C482E
:10089000406840F4E0604A494860207800F0080071
:1008A000082805D14648406840F4605044494860F3
:1008B0004348406820F0F000A16808434049486080
:1008C000207800F0010078B36068012806D13C4828
:1008D000006800F4003090B90120B8E76068022891
:1008E00006D13748006800F0007040B90120AEE73B
:1008F0003348006800F0020008B90120A7E730483B
:10090000406820F00300616808432D494860FFF704
:10091000D1FE064609E0FFF7CDFE801B41F288318B
:10092000884202D9032092E707E02548406800F09A
:100930000C006168B0EB810FEDD12048006800F039
:100940000700A8420ED91D48006820F00700284380
:100950001A4908600846006800F00700A84201D064
:10096000012074E7207800F00400042807D114481F
:10097000406820F4E060E16808431149486020784D
:1009800000F00800082808D10D48406820F46050A5
:10099000216940EAC1000A49486000F019F8084995
:1009A0004968C1F30311074A515CC8400649086011
:1009B00006480068FFF7A4FE002048E70020024038
:1009C00000100240181F000800000020080000204E
:1009D000F0B585B00FF26C0C9CE8E01001A8A0E81F
:1009E000E0101CA52D6800950021002200230024A2
:1009F0000020194D696801F00C05F5B1042D02D0F5
:100A0000082D19D101E0154819E001ADC1F3834665
:100A1000AC5D01F4803555B10F4D6D68C5F34045AF
:100A20001DF805200D4D6543B5FBF2F302E00C4DBA
:100A300004FB05F3184602E000BF084800BF00BFF2
:100A400005B0F0BD02030405060708090A0B0C0DEA
:100A50000E0F1010010200000010024000127A0078
:100A600000093D00F8B504460CB90120F8BD207816
:100A700000F00100002878D0F848406800F00C0031
:100A800004280CD0F548406800F00C00082811D16B
:100A9000F248406800F48030B0F5803F0AD1EF485A
:100AA000006800F4003000285FD0606800285CD146
:100AB0000120DBE700BF6068B0F5803F06D1E74862
:100AC000006840F48030E549086028E0606858B963
:100AD000E248006820F48030E04908600846006879
:100AE00020F4802008601AE06068B0F5A02F0BD1D8
:100AF000DA48006840F48020D84908600846006859
:100B000040F4803008600AE0D448006820F4803067
:100B1000D24908600846006820F48020086000BFC1
:100B2000606888B1FFF7C6FD054606E0FFF7C2FD25
:100B3000401B642801D9032098E7C848006800F4E6
:100B400000300028F2D010E0FFF7B4FD054606E0C3
:100B5000FFF7B0FD401B642801D9032086E7BF489A
:100B6000006800F400300028F2D1207800F0020084
:100B7000022857D1B948406800F00C0050B1B7487E
:100B8000406800F00C00082818D1B448406800F410
:100B9000803098B9B148006800F0020020B12069A7
:100BA000012801D0012061E7AC48006820F0F8007E
:100BB000616940EAC100A949086033E02069E8B1F1
:100BC0000120A7490860FFF775FD054606E0FFF71D
:100BD00071FD401B022801D9032047E79F480068A8
:100BE00000F002000028F2D09C48006820F0F800D5
:100BF000616940EAC1009949086013E00020984902
:100C00000860FFF757FD054606E0FFF753FD401B60
:100C1000022801D9032029E79048006800F002006B
:100C20000028F2D1207800F0080008282DD1A06912
:100C3000B8B101208B490860FFF73CFD054606E08E
:100C4000FFF738FD401B022801D903200EE7834837
:100C5000406A00F002000028F2D0012000F068FE97
:100C600013E000207F490860FFF724FD054606E0F9
:100C7000FFF720FD401B022801D90320F6E6774844
:100C8000406A00F002000028F2D1207800F0040051
:100C9000042873D100277148C06900F0805070B9F2
:100CA00000BF6E48C06940F080506C49C86108467A
:100CB000C06900F08050009000BF00BF01276A4863
:100CC000006800F48070B0B96748006840F4807034
:100CD00065490860FFF7EEFC054606E0FFF7EAFC11
:100CE000401B642801D90320C0E65F48006800F477
:100CF00080700028F2D000BFE068012806D1574874
:100D0000006A40F001005549086227E0E06858B9E0
:100D10005248006A20F00100504908620846006A03
:100D200020F00400086219E0E06805280BD14B4868
:100D3000006A40F00400494908620846006A40F031
:100D4000010008620AE04548006A20F001004349BA
:100D500008620846006A20F00400086200BFE068EC
:100D6000A0B1FFF7A7FC054609E0FFF7A3FC401B75
:100D700041F28831884202D9032077E622E03748E1
:100D8000006A00F002000028EFD012E0FFF792FCAA
:100D9000054608E0FFF78EFC401B41F2883188428F
:100DA00001D9032062E62D48006A00F00200002805
:100DB000F0D1012F05D12948C06920F08050274982
:100DC000C86100BFE069C8B32448406800F00C0067
:100DD000082860D0E069022848D100202049086630
:100DE000FFF768FC054606E0FFF764FC401B02289D
:100DF00001D903203AE61948006800F00070002885
:100E0000F2D1206AB0F5803F07D11448406820F441
:100E10000030A168084311494860D4E9080108433B
:100E20000E49496821F4741108430C4948600120B7
:100E30000B490866FFF73EFC054607E03DE0FFF77B
:100E400039FC401B022801D903200FE60348006843
:100E500000F000700028F2D02FE0000000100240E7
:100E600000004242800442420070004000201449C9
:100E70000866FFF71FFC054606E0FFF71BFC401B5A
:100E8000022801D90320F1E50E48006800F0007047
:100E90000028F2D111E0E069012800D1E6E5094817
:100EA000466806F48031206A814204D106F470114C
:100EB000606A814201D00120D8E50020D6E500001B
:100EC0000000424200100240042808D14FF0E02107
:100ED000096941F004014FF0E022116107E04FF091
:100EE000E021096921F004014FF0E022116170470F
:100EF00070B504462546681EB0F1807F01D30120FD
:100F00000FE0681E4FF0E02148610F214FF0FF30E5
:100F100000F01AFB00204FF0E021886107200861F3
:100F2000002070BD70477047704710B504462068B8
:100F30000069C0F34000D8B12068C068C0F3400029
:100F4000B0B16FF0020021680861012020772068AD
:100F5000806900F0030018B12046FFF7E5FF05E0C7
:100F6000204600F0ADF8204600F0ABF800202077D6
:100F700020680069C0F38000D8B12068C068C0F361
:100F80008000B0B16FF00400216808610220207772
:100F90002068806900F4407018B12046FFF7C4FF54
:100FA00005E0204600F08CF8204600F08AF800208A
:100FB000207720680069C0F3C000D8B12068C068FD
:100FC000C0F3C000B0B16FF00800216808610420D0
:100FD00020772068C06900F0030018B12046FFF7B1
:100FE000A3FF05E0204600F06BF8204600F069F80A
:100FF0000020207720680069C0F30010D8B1206875
:10100000C068C0F30010B0B16FF010002168086133
:10101000082020772068C06900F4407018B120468D
:10102000FFF782FF05E0204600F04AF8204600F076
:1010300048F8002020772068006900F0010058B1CE
:101040002068C06800F0010030B16FF00100216835
:101050000861204600F036F820680069C0F3C0102F
:1010600058B12068C068C0F3C01030B16FF0800084
:10107000216808612046FFF755FF20680069C0F32A
:10108000801058B12068C068C0F3801030B16FF094
:10109000400021680861204600F02EF820680069B1
:1010A000C0F3401058B12068C068C0F3401030B1A0
:1010B0006FF02000216808612046FFF734FF10BD63
:1010C0007047704710B504460849206888420CD123
:1010D00007480078401C0649087008460078012837
:1010E00003DD05210348FFF7D5FA10BD00040040D9
:1010F0000D00002000080140704770477047000055
:101100002DE9F84F0446206805682068C668206805
:1011100047694FF00009CA4605F00F09B9F1000F01
:101120000AD105F0200038B106F0200020B1204699
:1011300000F081FCBDE8F88FB9F1000F71D007F025
:10114000010018B906F4907000286AD005F001007B
:1011500030B106F4807018B1206C40F001002064BA
:1011600005F0040030B107F0010018B1206C40F028
:101170000200206405F0020030B107F0010018B150
:10118000206C40F00400206405F0080048B106F02F
:10119000200010B907F0010018B1206C40F00800E1
:1011A0002064206C68B305F0200028B106F0200010
:1011B00010B1204600F03FFC20684069C0F3801A5F
:1011C000206C00F0080010B9BAF1000F22D02046C0
:1011D00000F006FC2068406900F04000B0B12068D3
:1011E000406920F0400021684861A06B50B156482A
:1011F000A16B4863A06BFFF707F810B1A06B416BC0
:1012000088470CE02046FFF779FF08E02046FFF70B
:1012100075FF04E02046FFF771FF0020206489E796
:10122000FFE7206B012878D105F01000002874D06A
:1012300006F01000002870D000BF00200090206849
:101240000068009020684068009000BF00BF2068E0
:10125000406900F04000C0B3A06B006840681FFA0E
:1012600080F8B8F1000F2FD0A08D40452CDDA4F8F8
:101270002E80A06B806920281FD02068C06820F4D1
:1012800080702168C8602068406920F001002168F2
:1012900048612068406920F04000216848612020B2
:1012A00084F83E00002020632068C06820F0100011
:1012B0002168C860A06BFEF77CFFA08DE28D801ACC
:1012C00081B22046FFF719FF34E7FFE7A08DE18DDB
:1012D000401A1FFA80F8E08DE8B1B8F1000F1AD07B
:1012E0002068C06820F490702168C8602068406958
:1012F00020F0010021684861202084F83E00002091
:1013000020632068C06820F010002168C860414652
:101310002046FFF7F2FE0DE7FFE705F0800030B151
:1013200006F0800018B1204600F01AFC02E705F034
:10133000400030B106F0400018B1204600F06BFBD1
:10134000F8E600BFF6E60000CD19000870B50446C7
:101350000D46164694F83E00202816D105B10EB968
:10136000012070BD00BF94F83C00012801D102208B
:10137000F7E7012084F83C0000BF002020633246DC
:101380002946204600F0C9FBEBE70220E9E7000010
:1013900010B5044625492068884245D12448007884
:1013A000FF280EDB0020224908704FF4807121488D
:1013B000FEF7BFFEFF2314221F49204800F04CF81F
:1013C00032E01F4801781A4802780078401C184B18
:1013D00018701848815418460078401E1549085C5A
:1013E0000A281CD118460078801E085C0D2816D1EA
:1013F000FF235A1C114800F02FF80E4911A000F0ED
:1014000025FC0B480078811E10A000F01FFC002076
:10141000074908704FF480710648FEF78AFE0122E2
:1014200007490648FFF792FF10BD00000038014051
:101430000F00002074000020100000207401002024
:101440000E00002025730D0A000000006C656E3A46
:1014500025640D0A000000002DE9F84F04460E46F1
:10146000174699464FF0000A94F83D0020285AD1BB
:1014700006B117B90120BDE8F88F00BF94F83C0011
:10148000012801D10220F6E7012084F83C0000BFCA
:1014900000202064212084F83D00FFF70BF98246EC
:1014A000A784E784A068B0F5805F04D1206910B9F3
:1014B0000025B04602E035464FF0000800BF00208E
:1014C00084F83C0000BF1BE05346002280212046E8
:1014D000CDF8009000F074FB08B10320CBE745B9CC
:1014E000B8F80000C0F308002168486008F102085D
:1014F00003E02878216848606D1CE08C401EE08481
:10150000E08C0028E0D15346002240212046CDF84F
:10151000009000F055FB08B10320ACE7202084F8D0
:101520003D000020A7E70220A5E7704700BFFEE7C7
:1015300000BFFEE700BFFEE702480068C0F30220DC
:10154000704700000CED00E010B5002807DA0A072C
:10155000140E054A00F00F031B1FD45403E00A07C2
:10156000130E024A135410BD18ED00E000E400E031
:1015700070B5002419E004F1B001C8B2002100F0F8
:101580009BF90021022000F097F90021102000F0C3
:1015900093F9002505E00121002000F08DF9681C79
:1015A000C5B2802DF7DB601CC4B2082CE3DB70BD34
:1015B00000B585B000BF6E48806940F008006C49F6
:1015C00088610846806900F00800009000BF00BFF5
:1015D000881401900120029003900320049001A937
:1015E0006448FEF7BFFE4FF40040019001200290D6
:1015F00003900320049001A95E48FEF7B3FE4FF468
:10160000804001900120029003900320049001A9E2
:101610005848FEF7A7FE4FF40050019001200290B9
:1016200003900320049001A95248FEF79BFE01227B
:1016300011035048FFF738F80122D1034D48FFF756
:1016400033F8012291034B48FFF72EF80122510392
:101650004848FFF729F86420FEF72EFE00224FF4D9
:1016600000514448FFF720F86420FEF725FE0122D0
:1016700051034048FFF718F80021AE2000F01CF994
:101680000021022000F018F90021102000F014F9C8
:101690000021402000F010F90021812000F00CF919
:1016A0000021CF2000F008F90021A12000F004F96A
:1016B0000021C82000F000F90021A62000F0FCF86D
:1016C0000021A82000F0F8F800213F2000F0F4F8F5
:1016D0000021D32000F0F0F80021084600F0ECF8DB
:1016E0000021D52000F0E8F80021802000F0E4F887
:1016F0000021D92000F0E0F80021F12000F0DCF812
:101700000021DA2000F0D8F80021122000F0D4F8EF
:101710000021DB2000F0D0F80021402000F0CCF8C0
:101720000021202000F0C8F80021022000F0C4F8B9
:1017300000218D2000F0C0F80021142000F0BCF83A
:101740000021A42000F0B8F80021A62000F0B4F891
:101750000021AF2000F0B0F80021AF2000F0ACF87D
:10176000FFF706FF0021084600F006F805B000BDAF
:1017700000100240000C014070B504460D4605F112
:10178000B001C8B2002100F097F8102141EA14100E
:10179000002100F091F804F00F0141F00100002158
:1017A00000F08AF870BD00002DE9F04180460E4639
:1017B0001546002731464046FFF7DEFF00240AE0C9
:1017C000124A02EB8511085D012100F075F8781CC2
:1017D000C7B2601CC4B2102CF2DB701CC1B2404610
:1017E000FFF7CAFF00240CE06900491C074A02EB1E
:1017F0004111085D012100F05FF8781CC7B2601C40
:10180000C4B2102CF0DBBDE8F0810000487F000876
:101810002DE9F04107460E46904600250024A8F128
:101820002000C5B27F2F02DD0027B01CC6B23146B2
:101830003846FFF7A1FF002408E004EB05110F4A2A
:10184000505C012100F038F8601CC4B2082CF4DBB5
:10185000701CC1B23846FFF78FFF002409E004EB8B
:1018600005110831054A505C012100F025F8601C83
:10187000C4B2082CF3DBBDE8F08100005879000801
:101880002DE9F04104460F46154600260EE0AA5DFC
:1018900039462046FFF7BCFF04F10800C4B2782C9B
:1018A00002DD0024B81CC7B2701CC6B2A85D0028B7
:1018B000EDD1BDE8F081000070B504460E462EB1B2
:1018C000012211031848FEF7EFFE05E000224FF455
:1018D00080511548FEF7E8FE00251DE000224FF478
:1018E00000411148FEF7E0FE04F0800028B101221B
:1018F00091030D48FEF7D8FE05E000224FF4804129
:101900000948FEF7D1FE0122D1030748FEF7CCFEBD
:101910006006040E681CC5B2082DDFDB012211032E
:101920000148FEF7C1FE70BD000C01407047000089
:1019300008B508490968C9084FF47A72B1FBF2F199
:101940004143009100BF00BF00994A1E0092002948
:10195000F9D108BD00000020704710B590B00024F8
:1019600001200690000407900020089002200D90AE
:10197000C1030E914FF4E0110F9106A8FFF772F822
:1019800004460CB100BFFEE70F2001900220029038
:10199000002003904FF48060049000200590022105
:1019A00001A8FEF74FFF04460CB100BFFEE710B0E0
:1019B00010BD10B5FEF784FE10BD704710B502488B
:1019C000FFF7B3FA10BD00002C00002070B50546EB
:1019D0006C6A0020E085E0842046FFF78FFB70BD35
:1019E0000168C96821F490710268D1600168496991
:1019F00021F0010102685161016B012905D10168E3
:101A0000C96821F010010268D160202180F83E10E1
:101A100000210163704710B504462068C06820F0BB
:101A200040002168C860202084F83D002046FFF770
:101A30007CFD002010BDF8B5044694F83E00222835
:101A400069D1A068B0F5805F0CD1206950B900253C
:101A5000A66A20684068C0F308003080A06A801C35
:101A6000A06215E0A56A0026A068B0F5805F03D0EB
:101A7000A06828B9206918B920684068287004E077
:101A80002068406800F07F002870A06A401CA062B7
:101A9000E08D401E80B2E085A8BB2068C06820F0C1
:101AA00020002168C8602068C06820F48070216828
:101AB000C8602068406920F001002168486120204A
:101AC00084F83E00206B01281ED10020206320688E
:101AD000C06820F010002168C8602068006800F02D
:101AE000100010280AD100BF002000902068006874
:101AF000009020684068009000BF00BFA18D204684
:101B0000FFF7FBFA03E004E02046FFF741FC00206A
:101B1000F8BD0020FCE70220FAE710B50346996201
:101B20009A85DA8500201864222083F83E0000BFE1
:101B3000002083F83C0000BF1868C06840F4807043
:101B40001C68E0601868406940F001001C68606132
:101B50001868C06840F020001C68E060002010BDDC
:101B6000014691F83D00212828D18868B0F5805FB2
:101B70000BD1086948B90A6A1088C0F308000B68DD
:101B80005860086A801C086205E00B6A581C0862ED
:101B900018780B685860C88C401E80B2C88458B949
:101BA0000868C06820F080000B68D8600868C068CA
:101BB00040F040000B68D860002070470220FCE72E
:101BC0002DE9F04104460D4617469846069E21E051
:101BD000701CF8B12EB1FEF76DFDA0EB0800B0420D
:101BE00018D92068C06820F4D0702168C8602068C7
:101BF000406920F0010021684861202084F83D0000
:101C000084F83E0000BF002084F83C0000BF0320A1
:101C1000BDE8F081206800682840A84201D1012079
:101C200000E00020B842D3D00020F1E710B504480E
:101C3000FFF766FA012203490148FFF787FB10BD51
:101C4000740100200E00002000BFFEE70FB4054B1A
:101C500010B503A9044A029800F018F810BC5DF80A
:101C600014FB0000B91E00082800002002E008C88C
:101C7000121F08C1002AFAD170477047002001E006
:101C800001C1121F002AFBD1704700002DE9FF4F50
:101C90008BB09A460F460546002606E025280BD055
:101CA00052460D9990476D1C761C28780028F5D176
:101CB0000FB03046BDE8F08F0024A04601226049F5
:101CC00000E0044315F8013F203B02FA03F008420C
:101CD000F7D128782E2817D115F8010F44F0040405
:101CE0002A280ED06FF02F022878A0F130010929A0
:101CF0000AD808EB880102EB410100EB01086D1CDA
:101D0000F2E757F8048B6D1C287869283ED006DC72
:101D10000028CDD063280BD0642804D136E0732886
:101D200010D075284BD052460D999047761C85E00F
:101D300017F8040B8DF8000000208DF80100E9462B
:101D4000012003E057F8049B4FF0FF3061074FF08C
:101D5000000401D40AE0641C44450DDA8442FADB35
:101D600019F804100029F6D106E0641C8442FCDB5B
:101D700019F804100029F8D1264404E019F8010BE1
:101D800052460D999047641EF8D257E001CF4FF0AC
:101D90000A0B002802DA40422D2102E0210504D579
:101DA0002B218DF82410012103E0E10705D020212B
:101DB000F7E70DF1200908910CE00021F9E701CFC8
:101DC0004FF00A0BF9E75946FEF7BEF901F1300270
:101DD00009F8012D0028F6D1ADEB090000F1200B28
:101DE000600701D44FF00108D84502DDA8EB0B00D5
:101DF00000E000208046002406E009A85246005D6D
:101E00000D999047641C761C08988442F5DB04E029
:101E1000302052460D999047761CB8F10001A8F188
:101E20000108F5DC05E019F8010B52460D999047C1
:101E3000761CBBF10001ABF1010BF4DC6D1C34E747
:101E40000928010010B50420FFF73EF84820014999
:101E5000086010BD2400002030B50446002504E0D1
:101E60004FF47A7000F004F86D1CA542F8D330BD31
:101E700070B5034600224FF0E02675690D4E3668B6
:101E800003FB06F44FF0E026B16910E04FF0E026C6
:101E9000B06988420BD0884202D20E1A324402E066
:101EA0002E1A0E4432440146A24200D300E0EDE770
:101EB00000BF70BD2400002013B50C464FF47A73A8
:101EC000012269460248FFF7C7FA01201CBD000045
:101ED00074010020FEF700FCFFF73FFDFFF7B2FFA3
:101EE000FFF766FBFFF744FB13E05922002128208F
:101EF000FFF75AFC5A2200213820FFF755FC5B22DD
:101F000000214820FFF750FC02A202213820FFF7F1
:101F1000B7FCEAE7534200000000000000000000A8
:101F2000010203040607080900000000010203047F
:101F300000000000000000000000000000000000A1
:101F40000000000000000000000000000000000091
:101F50000000000000000000000000000000000081
:101F60000000000000000000000000000000000071
:101F70000000000000000000000000000000000061
:101F80000000000000000000000000000000000051
:101F90000000000000000000000000000000000041
:101FA0000000000000000000000000000000000031
:101FB0000000000000000000000000000000000021
:101FC0000000000000000000000000000000000011
:101FD0000000000000000000000000000000000001
:101FE00000000000000000000000000000000000F1
:101FF00000000000000000000000000000000000E1
:1020000000000000000000000000000000000000D0
:1020100000000000000000000000000000000000C0
:1020200000000000000000000000000000000000B0
:1020300000000000000000000000000000000000A0
:102040000000000000000000000000000000000090
:102050000000000000000000000000000000000080
:1020600000000000000080000000000000000000F0
:102070000000008080000000000000000000000060
:10208000E0000000000000000000800000000000F0
:1020900000000000000000000000000000000080C0
:1020A00080000000000000000000000000000000B0
:1020B0000000000000000080C000E19FC0C00000E0
:1020C00000083030FC8FF818F00000000080C66077
:1020D000E0000080000000002030F0E08000000000
:1020E0000000000000C0E33E30E0C000000000003F
:1020F000781FE7F83F300000000088CCF702F30CAF
:10210000FFC08000000000FA8000F870200000008E
:1021100000C0FF3000CCF8C00000000000807C8FC1
:102120009D6080000000000000F01F000000000023
:1021300000000000000019FBFF00FF8B0E030000F1
:1021400000067E003F03FF1C0300000002F7CFF4EF
:1021500007FCC7FB06000000C0780F01031EF8F063
:10216000C0000000FFCDFFDFF81F030000000000EB
:10217000703C0D07FF0E00000003CFF33F373B0616
:10218000FF010000000C9FFF4DC39FF800000000FE
:102190000F07F7E0333F11FFE0000000F0AFDACFA8
:1021A000F7000F3C700000800F01000000000000ED
:1021B0000000000000000701010E0300030E1000E4
:1021C0000002030302060F1E0E0E000007000103AB
:1021D00000030000000000000100000000000000FB
:1021E0000000000001030F18383800000000000054
:1021F0000618707003000000000001001C000000C1
:102200003F00000000020F7F0C0C0F0F1E7000003B
:1022100000003F0006061E010000000100017F1BB8
:10222000187C00000000000F00000000000000000B
:10223000000000000000000000000000000000009E
:10224000000000000000000000000000000000008E
:10225000000000000000000000000000000000007E
:10226000000000000000000000000000000000006E
:10227000000000000000000000000000000000005E
:10228000000000000000000000000000000000004E
:10229000000000000000000000000000000000003E
:1022A000000000000000000000000000000000002E
:1022B000000000000000000000000000000000001E
:1022C000000000000000000000000000000000000E
:1022D00000000000000000000000000000000000FE
:1022E00000000000000000000000000000000000EE
:1022F00000000000000000000000000000000000DE
:1023000000000000000000000000000000000000CD
:1023100000000000000000000000000000000000BD
:1023200000000000000000000000000000000000AD
:10233000000000000000000000000000000000009D
:10234000000000000000000000000000000000008D
:10235000000000000000000000000000000000007D
:10236000000000000000000000000000000000006D
:10237000000000000000000000000000000000005D
:10238000000000000000000000000000000000004D
:10239000000000000000000000000000000000003D
:1023A000000000000000000000000000000000002D
:1023B0000000E0F0F0F8F8F8F8F8F8F8F8F8F8F8B5
:1023C000F8F8F8F8F8F8F8F8F8F8F8F8F8F8F8F88D
:1023D000F8F8F8F8F8F8F8F0F0E000000000000075
:1023E000000080E0F0F0F0F0F0F0F0F0F0F0F0F04D
:1023F000F0F0F0F0F0F0F0F0F0F0F0F0F0F0F0F0DD
:10240000F0F0E0C000000000000000C0C0C0C0C08C
:10241000C0C0C0C0C0C0C0C0C0C0F8F8F8F8F8F86C
:10242000C0C0C0C0C0C0C0C0C0C0C0C0C0C000002C
:102430000002070707070707070707070707070738
:10244000070707070707070707070707070707071C
:10245000070707070707070787E7FB0000000000DB
:102460000000FFFFFFFFFFFF0101F1F9F9FDFD7D16
:102470007D7D7D797979F9F9F9F9F9F1E103FFFFCA
:10248000FFFFFFFFFE0000000000000F0F0F0F0F07
:102490000F0F0F0F0F0F0F0F1F7FFFFFFFFFFFFF2C
:1024A0000F0F0F0F0F0F0F0F0F0F0F0F0F0F00005A
:1024B00000FCFCFCFCFCFCFCFCFCFCFCFC7C1C04B0
:1024C0000000000000C0F0FCFCFCFCFC7C1C0C00CC
:1024D00000000000C0F0FCFEFFFFFF000000000055
:1024E0000000FFFFFFFFFFFF0070FDFDFEFEDECEE0
:1024F000DEDEFEFEFCFEFFFFFFDF8F030000FFFFBE
:10250000FFFFFFFFFF00000000000000FCFCFCFCE0
:10251000FCFCFCFCFCFCFCFCFCFCFFFFFFFFFFFFE9
:10252000FCFCFCFCFCFCFCFCFCFCFCFCFC000000DF
:1025300000FFFFFFFFFFFFFFFF7F1F0701000000FD
:1025400000C0F0FCFFFFFFFF7F1F0701000000003D
:10255000C0F0FCFFFFFFFFFFFFFFFF0000000000D7
:102560000000FFFFFFFFFFFF00F0F1F9FBFB7BFB2B
:10257000FBFBF3F3F1E1E3C3C3C3C3C3E600FFFF17
:10258000FFFFFFFFFF000000000000F8F8F8F8F878
:10259000F80000FCFCFCFCFCF8003CFCFCFCFCFC37
:1025A000F8000080E0F0F8FCFCFCFCFCF8F0000017
:1025B00000FFFFFFFF3F1F070100000080E0F8FC65
:1025C000FFFFFFFF7F1F07010000000040707C7FBE
:1025D0007F7F7F7F7F7F7F7F7F7F3F0000000000C6
:1025E0000000FFFFFFFFFFFF003C3E3E1E1E1E1EC1
:1025F0001E1E3E3F7D7F7BFBFBFBFBFB7B00FFFF4B
:10260000FFFFFFFFFF000000000000FFFFFFFFFFD4
:10261000FF0000FFFFFFFFFFFF8080879F9F9F9FBE
:102620009F9F9F8F878380809F9F9F9F9F9F00007A
:10263000003F0F03000000000020383E3F3F3F3FB7
:102640003F0F070100000000000000000000000034
:10265000000000000000000000000000000000007A
:1026600000003F3F3F3F3F3F3F3F3F3F3F3F3F3FF8
:102670003F3F3F3F3F3F3F3F3F3F3F3F3F3F3F3F6A
:102680003F3F3F3F3F0000000000001F1F1F1F1F74
:10269000070000071F1F3F3F3F3F3F3F3F3F3F3F78
:1026A0003F3F3F3F3F3F3F3F3F3F3F3F1F0F000008
:1026B000000000000000000000000000000000001A
:1026C000000000000000000000000000000000000A
:1026D00000000000000000000000000000000000FA
:1026E00000000000000000000000000000000000EA
:1026F00000000000000000000000000000000000DA
:1027000000000000000000000000000000000000C9
:1027100000000000000000000000000000000000B9
:1027200000000000000000000000000000000000A9
:10273000000000000000000000000000000000E0B9
:10274000F030180808080808081810101030202069
:10275000604040C080808000000000000000000059
:102760000000000000000000000000000000000069
:102770000000000000000000000000000000000059
:102780000000000000000000000000008080C04049
:1027900040202020301010101808080808080808E9
:1027A000080808181810F0E0000000000000000001
:1027B0000000000000000000000000000000000118
:1027C0000103060C081810102020604040C08080D3
:1027D0008080000000000101030202040C0C1810AC
:1027E00030206060C08080C0404040404040404059
:1027F000404040404040404040404040C0C0C0C0D9
:1028000060603018180C0C06020301010000000083
:1028100080808080C0404040202020201010180878
:10282000080C040602030100000000000000000084
:102830000000000000000000000000000000000098
:1028400000008080C0C060602030101888888884B4
:10285000848587838383828180808080000000005C
:102860000000000000000001010000000000000066
:1028700000000000000000000080808080818080D7
:10288000808080808080808080808081030303033B
:10289000070404040808081830302060C0C0800015
:1028A0000000000000000000000000000000000028
:1028B00000000000000000008080E030381C4CE682
:1028C000F2FBFDFCFCFAFAF2F1E1E140406020206D
:1028D0000000101010101010101010002020614186
:1028E00041C1828204040CB8F0000000E0E0F0F87E
:1028F000FCFCFCFAF2F1F1E1E14040602020001024
:102900001010101010101010101020202021414124
:10291000838202040498F8600000000000000103B4
:1029200003060E1C38E0C08000000000000000001C
:1029300000000000000030FCFF87000000000001E4
:10294000010101010181810100000000000000007F
:102950000000000000000000000000000000000077
:102960000000000101010101000000000000010160
:102970000101010101010000000000000000000051
:102980000000000000000000000000000000808047
:102990000000010101010000000000000000000033
:1029A000000000000000FFFF000000000000000029
:1029B0000000000000000001070F1C306060C080B4
:1029C00080000000000107071C30306040C080809C
:1029D00000000000000000000000000000000000F7
:1029E00000000000000000000000000000000000E7
:1029F00000000000000000000000000000000000D7
:102A00000000000080808040602030180C0E030120
:102A1000000000000000000000000000000080C076
:102A2000C06070381C0F03010000000000000000AF
:102A30000000000000000000000000000000000096
:102A40000101020206060404080808181810109173
:102A5000F1E16262262624444448484848484848F0
:102A6000585850505010101010101010101808081E
:102A700008080808080808080004044444464242BC
:102A800042424141414040404040E0E0E0E0A0207F
:102A9000301010101808080C04040602030101008D
:102AA0000000000000000000000000000000000026
:102AB0000000000000000000000000000000000016
:102AC00000000000000000000000E0F8FC3F1F07CD
:102AD00001000000000000000000000000000000F5
:102AE00000000000000000000000000000000000E6
:102AF00000000000000000000000000000000000D6
:102B000000000000000000000000000001031F7F23
:102B1000FCF8E000000000000000000000000000E1
:102B200000000000000000000000000000000000A5
:102B30000000000000000000000000000000000095
:102B40000000000000000000000000000000000085
:102B5000F8F80C06020203010101010202060C1C36
:102B600078F0C080000000000000000000000000BD
:102B70000000000000000000000000000000000055
:102B80000080C0703018080C040602020301010125
:102B90000101010103C6FE7C0000000000000000EE
:102BA0000000000000000000000000000000000025
:102BB0000000000000000000000000000000000015
:102BC0000000000000000000000000000000000005
:102BD000070F3C3860C080000000000000000000CB
:102BE0000000077FFCC080404040404040404040E3
:102BF000404040404040404040404040C0C0F87CE1
:102C00000F030000000000000000000080C06060B2
:102C100030180C0607010100000000000000000051
:102C200000000000000000000000000000000000A4
:102C30000000000000000000000000000000000094
:102C400000008080C0C060602030101888888884B0
:102C5000848486828282838180808080000000005C
:102C60000000000000000000000000000000000064
:102C700000000000000000000080808081818180D1
:102C80008080808080808080808081810302020239
:102C9000060404040808081830302060C0C0800012
:102CA0000000000000000000000000000000000024
:102CB00000000000000000008080E030381C4CE67E
:102CC000F2FBFDFCFCFAFAF2F1E1E1404060202069
:102CD0000000101010101010101010002020614182
:102CE00041C1828204040CB8F0000000E0E0F0F87A
:102CF000FCFCFCFAF2F1F1E1E14040602020001020
:102D00001010101010101010101020202021414120
:102D1000838202040498F8600000000000000103B0
:102D200003060E1C38E0C080000000000000000018
:102D300000000000000030FCFF87000000000001E0
:102D4000010101010181810100000000000000007B
:102D50000000000000000000000000000000000073
:102D6000000000010101010100000000000001015C
:102D7000010101010101000000000000000000004D
:102D80000000000000000000000000000000808043
:102D9000000001010101000000000000000000002F
:102DA000000000000000FFFF000000000000000025
:102DB0000000000000000001070F1C306060C080B0
:102DC00080000000000107071C30306040C0808098
:102DD00000000000000000000000000000000000F3
:102DE00000000000000000000000000000000000E3
:102DF00000000000000000000000000000000000D3
:102E00000000000080808040602030180C0E03011C
:102E1000000000000000000000000000000080C072
:102E2000C06070381C0F03010000000000000000AB
:102E30000000000000000000000000000000000092
:102E4000010102020606040408080818181010916F
:102E5000F1E16262262624444448484848484848EC
:102E6000585850505010101010101010101808081A
:102E700008080808080808080004044444464242B8
:102E800042424141414040404040E0E0E0E0A0207B
:102E9000301010101808080C040406020301010089
:102EA0000000000000000000000000000000000022
:102EB0000000000000000000000000000000000012
:102EC00000000000000000000000E0F8FC3F1F07C9
:102ED00001000000000000000000000000000000F1
:102EE00000000000000000000000000000000000E2
:102EF00000000000000000000000000000000000D2
:102F000000000000000000000000000001031F7F1F
:102F1000FCF8E000000000000000000000000000DD
:102F200000000000000000000000000000000000A1
:102F30000000000000000000000000000000000091
:102F40000000000000000000000000000000000081
:102F5000000000000000008080402098CC663319FB
:102F60000C0603010000000000000000000000004B
:102F70000000000000000000000080C0603098CC1D
:102F80006432190C0603010000000000000000007C
:102F90000000000000000000000000000000000031
:102FA0000000000000000000000000000000000021
:102FB0000000000000000000000000000000000011
:102FC0000000000000000000000000000000000001
:102FD0000080403098CC6639190C020100000000D6
:102FE00000000000000000000000000000000000E1
:102FF000000080C06030984C6432190C0603010058
:1030000000000000000000000000000000000000C0
:1030100000000000000000000000000000000000B0
:1030200000000000000000000000000000000000A0
:103030000000000000000000000000000000000090
:103040000000000000000000000080C060388C66B6
:10305000E3D96C26111008080404040400020202DB
:103060000202020202020202020202020000040440
:103070000603010C0A0B1110102020404080800034
:103080000000000000000000000000000000000040
:103090000000000000000000000000000000000030
:1030A0000000000000000000000000000000000020
:1030B0000000000000000000000000000000000010
:1030C000804000A0E0E0F0189CC67398CE2FBDC7EA
:1030D000C3C0E0E0E0F0F8FC7C3FFEFEFEF232F818
:1030E000F8FCFCDC08389840E0F0F0F0E0E0E0C0EC
:1030F000C0C080800000000000000000000001034C
:10310000020418F0000000000000000000000000B1
:1031100000000000000000000000000000000000AF
:10312000000000000000000000000000000000009F
:1031300040C080C04040400000000080808080C0CF
:1031400061398EC6B1998A9696A66D4D17181913D6
:103150009387C7CFCFDFDFDFBEBE3E3C3C7D9D897E
:10316000A2B239FCFEFFFFFFFFFFFFFFFFFFFFFFE3
:103170007F7F07818080800000000000000000C089
:103180008080809F7F0000000000000000000000A1
:10319000000000000000000000000000000000002F
:1031A000000000000000000000000000000000001F
:1031B00002040505EBBB134343CEDED69696D6C676
:1031C000C6C6C0C0C0C0C0C0C0C0C0000006070F97
:1031D0000F0F0F07233339090984506824110B0599
:1031E00005040202020202020202020202020202BA
:1031F00000010100000000010101010101010100C5
:1032000000000000000000000000000000000000BE
:1032100000000000000000000000000000000000AE
:10322000000000000000000000000000000000009E
:10323000000000000000010101020202030301017D
:10324000050509091111111111010928282828283B
:1032500038301010545450524345381800000000C4
:10326000000000000000000000000000000000005E
:10327000000000000000000000000000000000004E
:10328000000000000000000000000000000000003E
:10329000000000000000000000000000000000002E
:1032A000000000000000000000000000000000001E
:1032B000000000000000000000000000000000000E
:1032C00000000000000000000000000000000000FE
:1032D00000000000000000000000000000000000EE
:1032E00000000000000000000000000000000000DE
:1032F00000000000000000000000000000000000CE
:1033000000000000000000000000000000000000BD
:1033100000000000000000000000000000000000AD
:10332000000000000000000000000000000000009D
:10333000000000000000000000000000000000008D
:10334000000000000000000000000000000000007D
:1033500000000000000000000080603098C4631985
:10336000190603010000000000000000000000003A
:103370000000000000000000000000806030988C19
:103380006633190C06030000000000000000000076
:10339000000000000000000000000000000000002D
:1033A000000000000000000000000000000000001D
:1033B000000000000000000000000000000000000D
:1033C00000000000000000000000000000000000FD
:1033D000000000C060388CE663390C060100000074
:1033E00000000000000000000000000000000000DD
:1033F00000000080C0603090CC6633190C020101DF
:1034000000000000000000000000000000000000BC
:1034100000000000000000000000000000000000AC
:10342000000000000000000000000000000000009C
:10343000000000000000000000000000000000008C
:103440000000000000000000000000000080603864
:10345000184623191C0F0104040400020202020290
:10346000020200000000000000020202020202024A
:1034700000040201040E0B09181000202040808077
:10348000000000000000000000000000000000003C
:10349000000000000000000000000000000000002C
:1034A000000000000000000000000000000000001C
:1034B000000000000000000000000000000000000C
:1034C00000000080808000004060388CE7F17C8242
:1034D00081C0C0C0E0F0F87E7FFCFCEEEEFE7C7C9C
:1034E0007CFCFCACBCB8F8383898C0F0F0F0E0E0F8
:1034F000E0E0C0C00000000000000000000000008C
:103500000102063CE0000000000000000000000096
:1035100000000000000000000000000000000000AB
:10352000000000000000000000000000000000009B
:10353000000000000000000000000000000000008B
:10354000000087C5701AC363232D5E59BB9C0063BE
:1035500073672F0F8FDFDFDCDDBDBDBDB9B83A3A31
:103560003B3B9D8723797C7E7FFFFFFFFF7F7F7F33
:103570007F7F7FBF804040404040404040404040CF
:1035800040302020233F1800000000000000000011
:10359000000000000000000000000000000000002B
:1035A000000000000000000000000000000000001B
:1035B00000060E091515052DADAC6E4E1C1E1E5CC9
:1035C0005C5C5D5D1C0F83828282828281808000D0
:1035D000000C0E1F1F1F0F070723331948A0D06CC4
:1035E00064331B0D04020200000000000000000113
:1035F00001010100000000000000000000000000C8
:1036000000000000000000000000000000000000BA
:1036100000000000000000000000000000000000AA
:10362000000000000000000000000000000000009A
:103630000000000000000000030302040505030B66
:103640000B0A0B0B0B1B1303232B2B2333131353CB
:1036500050505040406060202028A8A4A68B7930AC
:10366000000000000000000000000000000000005A
:10367000000000000000000000000000000000004A
:10368000000000000000000000000000000000003A
:10369000000000000000000000000000000000002A
:1036A000000000000000000000000000000000001A
:1036B000000000000000000000000000000000000A
:1036C00000000000000000000000000000000000FA
:1036D00000000000000000000000000000000000EA
:1036E00000000000000000000000000000000000DA
:1036F00000000000000000000000000000000000CA
:1037000000000000000000000000000000000000B9
:1037100000000000000000000000000000000000A9
:103720000000000000000000000000000000000099
:103730000000000000000000000000000000000089
:103740000000000000000000000000000000000079
:103750000000000000000000000080C0301CC7E333
:10376000380C030100000000000000000000000011
:1037700000000000000000000000000080806038B1
:103780008CC7711806060100000000000000000050
:103790000000000000000000000000000000000029
:1037A0000000000000000000000000000000000019
:1037B0000000000000000000000000000000000009
:1037C00000000000000000000000000000000000F9
:1037D000000000000000C060380EC3701C0701002C
:1037E00000000000000000000000000000000000D9
:1037F0000000000000000080C06018C663711C0655
:1038000003000000000000000000000000000000B5
:1038100000000000000000000000000000000000A8
:103820000000000000000000000000000000000098
:103830000000000000000000000000000000000088
:103840000000000000000000000000000000000078
:10385000000080E0380FC3F87C47012030101010C2
:103860000008080808000000000000000000000038
:1038700000000808080C0603081E13312020204011
:1038800040808000000000000000000000000000F8
:103890000000000000000000000000000000000028
:1038A0000000000000000000000000000000000018
:1038B0000000000000000000000000000000000008
:1038C000000000000000000000000000000000E018
:1038D000F01C87E084C30100008080C0E0F8F8F8A5
:1038E000F8F8F8B8F8F8F8F07030F0F0F0E0602090
:1038F00080C0C0C0C0808080800000000000000048
:1039000000000001030306040830E080000000000E
:1039100000000000000000000000000000000000A7
:103920000000000000000000000000000000000097
:103930000000000000000000000000000000000087
:10394000000000000000000030382854D43C1B491F
:1039500040D4C7DBF12C0EDF9FBFBF3F7F7B7B7B5B
:10396000FBF7F7F7F5F1F9FFFF771E86E2F8FCFFAA
:10397000FFFFFFFFFFFFFFFFFF8F030000000000BE
:10398000000000000000000000F01F030000000025
:103990000000000000000000000000000000000027
:1039A0000000000000000000000000000000000017
:1039B0000000000000000000000070D0882868E0CF
:1039C000E0F0D0D0D0D0D0D0D0D0DCCFC1D81F1133
:1039D0001113120A0D0402030331787C7CFF7F7FF0
:1039E0003E1E8EC66010004008CC6E3E11090F07C7
:1039F0000303030705050505040202010101010196
:103A000001010202030301000101000000000000A7
:103A100000000000000000000000000000000000A6
:103A20000000000000000000000000000000000096
:103A30000000000000000000000000000001010084
:103A400002020206040C1A302C6C5C593B3938B85F
:103A5000B8BC5C5C5C1C9C9C9C9880808080808056
:103A6000808080A0A0919E2E23C000000000000056
:103A70000000000000000000000000000000000046
:103A80000000000000000000000000000000000036
:103A90000000000000000000000000000000000026
:103AA0000000000000000000000000000000000016
:103AB0000000000000000000000000000000000006
:103AC00000000000000000000000000000000000F6
:103AD00000000101010101010101000000000000DE
:103AE00000020202020202020201000000000000C5
:103AF00000000000000000000000000000000000C6
:103B000000000000000000000000000000000000B5
:103B100000000000000000000000000000000000A5
:103B20000000000000000000000000000000000095
:103B30000000000000000000000000000000000085
:103B40000000000000000000000000000000000075
:103B5000000000000000000000000000C0F03F0373
:103B6000E03E030000000000000000000000000034
:103B70000000000000000000000000000000C0780D
:103B80001C07E0380F0100000000000000000000EA
:103B90000000000000000000000000000000000025
:103BA0000000000000000000000000000000000015
:103BB0000000000000000000000000000000000005
:103BC00000000000000000000000000000000000F5
:103BD0000000000000000000000000E0FF0F00FCFB
:103BE0001F000000000000000000000000000000B6
:103BF000000000000000000000000080F01F03F043
:103C00007C0F010000000000000000000000000028
:103C100000000000000000000000000000000000A4
:103C20000000000000000000000000000000000094
:103C30000000000000000000000000000000000084
:103C40000000000000000000000000000000000074
:103C50000000000000000000000000FF0000FC7FEA
:103C60008080804040404020202020000000101034
:103C700010101010101010100000180F00383F41E5
:103C80004040400080800000000000000000000074
:103C90000000000000000000000000000000000024
:103CA0000000000000000000000000000000000014
:103CB0000000000000000000000000000000000004
:103CC00000000000000000000000000000000000F4
:103CD00000000000000080C030180F070000030142
:103CE000000080C0C0C0C0C0C0C0C0C0C0C0C0C094
:103CF0008080808080808080800000000000000044
:103D0000000000000000010101020404081830C096
:103D100000000000000000000000000000000000A3
:103D20000000000000000000000000000000000093
:103D30000000000000000000000000000000000083
:103D40000000000000000000000000000000000073
:103D50000000000000040F888848780000E0E0F0D0
:103D6000F8FCFFFDFCFCBCBCBFAFAF8F8F1D79F929
:103D7000BBFBFFFFFFFFFF3F01E0FFFFFFFF9F8651
:103D800080000000000000000000000080C0603FD4
:103D90000300000000000000000000000000000020
:103DA0000000000000000000000000000000000013
:103DB0000000000000000000000000000000000003
:103DC00000000000000000000000000000000000F3
:103DD00000000000020705080B0BF30000FCEC2DAF
:103DE0002D2D1BCBC31B13131707C7E7F7F7F7F7E7
:103DF000F7F73717030B3130B83B87E737030B0B67
:103E00000B0D05020201010101000101000000008B
:103E100000000000000000000000000000000000A2
:103E20000000000000000000000000000000000092
:103E30000000000000000000000000000000000082
:103E40000000000000000000000000000C1C322AEE
:103E50004A5A1A3AB4B4B4141C1A5B58989B9B98EB
:103E60000001818180C0C0C0C0C3C3C383070707EE
:103E70000100000407000807007C878000000000A4
:103E80000000000000000000000000000000000032
:103E90000000000000000000000000000000000022
:103EA0000000000000000000000000000000000012
:103EB0000000000000000000000000000000000002
:103EC00000000000000000000000000000000000F2
:103ED00000000000000000000101030605050B0BB7
:103EE0000B0B0B0B0B0303131713111115141414E5
:103EF000141404040404050505050C08090F00004A
:103F000000000000000000000000000000000000B1
:103F100000000000000000000000000000000000A1
:103F20000000000000000000000000000000000091
:103F30000000000000000000000000000000000081
:103F40000000000000000000000000000000000071
:103F50000000000000000000000000000000000160
:103F60003FF0003FF00000000000000000000000F3
:103F70000000000000000000000000000000000041
:103F80000000FFC000FFFF00000000000000000074
:103F90000000000000000000000000000000000021
:103FA0000000000000000000000000000000000011
:103FB0000000000000000000000000000000000001
:103FC00000000000000000000000000000000000F1
:103FD00000000000000000000000000000000000E1
:103FE00000073EE0033FF0C00000000000000000BA
:103FF00000000000000000000000000000000000C1
:10400000000001FFC0010FFC0000000000000000E4
:1040100000000000000000000000000000000000A0
:104020000000000000000000000000000000000090
:104030000000000000000000000000000000000080
:104040000000000000000000000000000000000070
:104050000000000000000000000000000000000060
:10406000000000010F78C1831EF0800000000000F6
:1040700080800040404040202020200000000010B0
:10408000101010101F1000031F00202020202040BF
:104090004040008080800000000000000000000020
:1040A0000000000000000000000000000000000010
:1040B0000000000000000000000000000000000000
:1040C00000000000000000000000000000000000F0
:1040D00000000000000000000000000000000000E0
:1040E0000000000000C023371C000702020101008D
:1040F0000000000000000000000000808080808040
:104100008080C0C0C0C0C0C08000C0C0000000002F
:104110000000000000000101020418F0C0000000CF
:10412000000000000000000000000000000000008F
:10413000000000000000000000000000000000007F
:10414000000000000000000000000000000000006F
:10415000000000000000000000000000000000005F
:1041600000000080FF0100000000000000000004CB
:10417000FEFEE6FEFBFFFFFFFFFFFD9B7B737373FD
:104180007BBBFFFFFFFFFFFFFFF8801FEFE0E0E0DA
:10419000E0E0603080C0701808080C0701000000E3
:1041A000000000000000000000000000000000000F
:1041B00000000000000000000000000000000000FF
:1041C00000000000000000000000000000000000EF
:1041D00000000000000000000000000000000000DF
:1041E0000000000001010101010101011F24203331
:1041F00057C70F0FEFAFAE8E0E6E6E0E0E0F0F0F76
:10420000E7E7F7F7F7F7F7FB030501E89C1D1D014A
:1042100076FE010100000000000000000000000028
:10422000000000000000000000000000000000008E
:10423000000000000000000000000000000000007E
:10424000000000000000000000000000000000006E
:10425000000000000000000000000000000000005E
:10426000000000000000000000808040404020204E
:10427000005157ACA1C7C6E4E4C40303000000002A
:1042800081C3C3C3C3C3C383000000030300008012
:1042900000435C782020A0A040C080000000000007
:1042A000000000000000000000000000000000000E
:1042B00000000000000000000000000000000000FE
:1042C00000000000000000000000000000000000EE
:1042D00000000000000000000000000000000000DE
:1042E00000000000000000000001030405050B0BA6
:1042F0000B0B0B0B0305050402020A080A0B171728
:104300001717171313111110140404080A0A0A02CC
:10431000020605050501000202020100000000007E
:10432000000000000000000000000000000000008D
:10433000000000000000000000000000000000007D
:10434000000000000000000000000000000000006D
:10435000000000000000000000000000000000015C
:10436000073CE1C71C70C000000000000000000016
:10437000000000000000000000000000000000003D
:104380000003071CF0831E78C0000000000000003E
:10439000000000000000000000000000000000001D
:1043A000000000000000000000000000000000000D
:1043B00000000000000000000000000000000000FD
:1043C00000000000000000000000000000000000ED
:1043D00000000000000000000000000000000000DD
:1043E00000000001071C31E3C61C70C08000000003
:1043F00000000000000000000000000000000000BD
:104400000000000000030E38E1871C38E080000047
:10441000000000000000000000000000000000009C
:10442000000000000000000000000000000000008C
:10443000000000000000000000000000000000007C
:10444000000000000000000000000000000000006C
:10445000000000000000000000000000000000005C
:10446000000000000000000001030E1831C68C306F
:1044700060C080000080800040404020202000106C
:1044800010101010101010000001060E18030E1866
:10449000101010000020202040408080000000000C
:1044A000000000000000000000000000000000000C
:1044B00000000000000000000000000000000000FC
:1044C00000000000000000000000000000000000EC
:1044D00000000000000000000000000000000000DC
:1044E0000000000000000000000000C0603009076C
:1044F00004000301010000000000000000000000B3
:104500000080808080C0C0C0C0C0C0C0E0E0E0804B
:1045100000000000000000000000000001030EF891
:10452000000000000000000000000000000000008B
:10453000000000000000000000000000000000007B
:10454000000000000000000000000000000000006B
:10455000000000000000000000000000000000005B
:1045600000000000000000000000FE7F00000000CE
:10457000000000000008187CFCFCEEF6EEEEFFFFE9
:10458000FFFFFBFF9FFB7B7B7B3FFFFFFFFFFFFFEF
:10459000F0F0F0F0F078382008DCC0A03A5EC2817C
:1045A000000000000000000000000000000000000B
:1045B00000000000000000000000000000000000FB
:1045C00000000000000000000000000000000000EB
:1045D00000000000000000000000000000000000DB
:1045E000000000000000000000060B08080C08088E
:1045F00008080804040C18102F2F2F1FDF9F5F5F7F
:104600005D5C9E1E6E4E0E0F0F0707071733FBFBF8
:10461000F9FDFDF0E0C00E1E3C7D716161041F31AB
:1046200060C08000000000000000000000000000EA
:10463000000000000000000000000000000000007A
:10464000000000000000000000000000000000006A
:10465000000000000000000000000000000000005A
:10466000000000000000000000000000000000004A
:104670000000000000000000000000000000010138
:10468000C160219396982306C5E7C2C080000081CF
:10469000014101E1E1F0F0F0F0E00040404040A0D5
:1046A000B0B0434E5C64A4A4B4544448301000003D
:1046B00000000000000000000000000000000000FA
:1046C00000000000000000000000000000000000EA
:1046D00000000000000000000000000000000000DA
:1046E00000000000000000000000000000000000CA
:1046F0000000000000000000000000000000040FA7
:10470000080804041616161717130B090405070FDB
:10471000090D1617171717171B08000405050502C2
:104720000202010101000000000000000000000082
:104730000000000000000000000000000000000079
:104740000000000000000000000000000000000069
:104750000000000000000000000000000000000158
:10476000030C38E38E1830E08000000000000000E9
:104770000000000000000000000000000000000039
:104780000000030E1C70C30E38E0000000000000A3
:104790000000000000000000000000000000000019
:1047A0000000000000000000000000000000000009
:1047B00000000000000000000000000000000000F9
:1047C00000000000000000000000000000000000E9
:1047D00000000000000000000000000000000000D9
:1047E0000000000001070E1C31C68C306080800084
:1047F00000000000000000000000000000000000B9
:1048000000000000000001030C38E3C71C30E0800A
:104810000000000000000000000000000000000098
:104820000000000000000000000000000000000088
:104830000000000000000000000000000000000078
:104840000000000000000000000000000000000068
:104850000000000000000000000000000000000058
:104860000000000000000000000001070C19316783
:10487000CC1870C080000000008080804040402044
:10488000202000101010101010000000030E08016E
:10489000060C0000101010101010002020204040C6
:1048A0008080800000000000000000000000000088
:1048B00000000000000000000000000000000000F8
:1048C00000000000000000000000000000000000E8
:1048D00000000000000000000000000000000000D8
:1048E00000000000000000000000000000000000C8
:1048F000C0731E0C01030203010000000000000051
:10490000000000008080808080C0C0C0C0C0C0C0E7
:10491000C0E0E0E0E0C00000000000000000000097
:104920000000010306FCF000000000000000000091
:104930000000000000000000000000000000000077
:104940000000000000000000000000000000000067
:104950000000000000000000000000000000000057
:104960000000000000000000000000008060780FE0
:1049700001000000000000000000041C3EFEFEEEEE
:10498000FBF7FF7FFFDFFF79794B1B1B3F3F9FFF4B
:10499000FFFFFFFFFFFFF0F0F0F070208018D8D885
:1049A00080A03CC482030000000000000000000062
:1049B00000000000000000000000000000000000F7
:1049C00000000000000000000000000000000000E7
:1049D00000000000000000000000000000000000D7
:1049E00000000000000000000000000302020202BC
:1049F0000200000000000202020E081013172F2F01
:104A00002F2F0F4F4E4ECE0E4FCFCF4F4FD7970772
:104A100007033B7BFBFDFDFDFDE0E0820E1E3D7DBF
:104A20007131061F312040800000000000000000AE
:104A30000000000000000000000000000000000076
:104A40000000000000000000000000000000000066
:104A50000000000000000000000000000000000056
:104A60000000000000000000000000000000000046
:104A70000000000000000000000000000000000036
:104A80000000000000C0602196DCC9C9860477E3FD
:104A9000C0C08000008181800070F0F0F0F0F0E094
:104AA000000080A080505863A5ACA852525A2A2218
:104AB00000000000000000000000000000000000F6
:104AC00000000000000000000000000000000000E6
:104AD00000000000000000000000000000000000D6
:104AE00000000000000000000000000000000000C6
:104AF00000000000000000000000000000000000B6
:104B00000000000000030000000C1111191C1E170A
:104B10001717070808050D0910141717171717108E
:104B20000C0C020202010100000000000000000065
:104B30000000000000000000000000000000000075
:104B40000000000000000000000000000000000065
:104B50000000000000000000000000000000000154
:104B6000073CE1C71C70C00000000000000000000E
:104B70000000000000000000000000000000000035
:104B80000003071CF0831E78C00000000000000036
:104B90000000000000000000000000000000000015
:104BA0000000000000000000000000000000000005
:104BB00000000000000000000000000000000000F5
:104BC00000000000000000000000000000000000E5
:104BD00000000000000000000000000000000000D5
:104BE00000000001071C31E3C61C70C080000000FB
:104BF00000000000000000000000000000000000B5
:104C00000000000000030E38E1871C38E08000003F
:104C10000000000000000000000000000000000094
:104C20000000000000000000000000000000000084
:104C30000000000000000000000000000000000074
:104C40000000000000000000000000000000000064
:104C50000000000000000000000000000000000054
:104C6000000000000000000001030E1831C68C3067
:104C700060C0800000808000404040202020001064
:104C800010101010101010000001060E18030E185E
:104C90001010100000202020404080800000000004
:104CA0000000000000000000000000000000000004
:104CB00000000000000000000000000000000000F4
:104CC00000000000000000000000000000000000E4
:104CD00000000000000000000000000000000000D4
:104CE0000000000000000000000000C06030090764
:104CF00004000301010000000000000000000000AB
:104D00000080808080C0C0C0C0C0C0C0E0E0E08043
:104D100000000000000000000000000001030EF889
:104D20000000000000000000000000000000000083
:104D30000000000000000000000000000000000073
:104D40000000000000000000000000000000000063
:104D50000000000000000000000000000000000053
:104D600000000000000000000000FE7F00000000C6
:104D7000000000000008187CFCFCEEF6EEEEFFFFE1
:104D8000FFFFFBFF9FFB7B7B7B3FFFFFFFFFFFFFE7
:104D9000F0F0F0F0F078382008DCC0A03A5EC28174
:104DA0000000000000000000000000000000000003
:104DB00000000000000000000000000000000000F3
:104DC00000000000000000000000000000000000E3
:104DD00000000000000000000000000000000000D3
:104DE000000000000000000000060B08080C080886
:104DF00008080804040C18102F2F2F1FDF9F5F5F77
:104E00005D5C9E1E6E4E0E0F0F0707071733FBFBF0
:104E1000F9FDFDF0E0C00E1E3C7D716161041F31A3
:104E200060C08000000000000000000000000000E2
:104E30000000000000000000000000000000000072
:104E40000000000000000000000000000000000062
:104E50000000000000000000000000000000000052
:104E60000000000000000000000000000000000042
:104E70000000000000000000000000000000010130
:104E8000C160219396982306C5E7C2C080000081C7
:104E9000014101E1E1F0F0F0F0E00040404040A0CD
:104EA000B0B0434E5C64A4A4B45444483010000035
:104EB00000000000000000000000000000000000F2
:104EC00000000000000000000000000000000000E2
:104ED00000000000000000000000000000000000D2
:104EE00000000000000000000000000000000000C2
:104EF0000000000000000000000000000000040F9F
:104F0000080804041616161717130B090405070FD3
:104F1000090D1617171717171B08000405050502BA
:104F2000020201010100000000000000000000007A
:104F30000000000000000000000000000000000071
:104F40000000000000000000000000000000000061
:104F50000000000000000000000000000000000150
:104F60003FF0003FF00000000000000000000000E3
:104F70000000000000000000000000000000000031
:104F80000000FFC000FFFF00000000000000000064
:104F90000000000000000000000000000000000011
:104FA0000000000000000000000000000000000001
:104FB00000000000000000000000000000000000F1
:104FC00000000000000000000000000000000000E1
:104FD00000000000000000000000000000000000D1
:104FE00000073EE0033FF0C00000000000000000AA
:104FF00000000000000000000000000000000000B1
:10500000000001FFC0010FFC0000000000000000D4
:105010000000000000000000000000000000000090
:105020000000000000000000000000000000000080
:105030000000000000000000000000000000000070
:105040000000000000000000000000000000000060
:105050000000000000000000000000000000000050
:10506000000000010F78C1831EF0800000000000E6
:1050700080800040404040202020200000000010A0
:10508000101010101F1000031F00202020202040AF
:105090004040008080800000000000000000000010
:1050A0000000000000000000000000000000000000
:1050B00000000000000000000000000000000000F0
:1050C00000000000000000000000000000000000E0
:1050D00000000000000000000000000000000000D0
:1050E0000000000000C023371C000702020101007D
:1050F0000000000000000000000000808080808030
:105100008080C0C0C0C0C0C08000C0C0000000001F
:105110000000000000000101020418F0C0000000BF
:10512000000000000000000000000000000000007F
:10513000000000000000000000000000000000006F
:10514000000000000000000000000000000000005F
:10515000000000000000000000000000000000004F
:1051600000000080FF0100000000000000000004BB
:10517000FEFEE6FEFBFFFFFFFFFFFD9B7B737373ED
:105180007BBBFFFFFFFFFFFFFFF8801FEFE0E0E0CA
:10519000E0E0603080C0701808080C0701000000D3
:1051A00000000000000000000000000000000000FF
:1051B00000000000000000000000000000000000EF
:1051C00000000000000000000000000000000000DF
:1051D00000000000000000000000000000000000CF
:1051E0000000000001010101010101011F24203321
:1051F00057C70F0FEFAFAE8E0E6E6E0E0E0F0F0F66
:10520000E7E7F7F7F7F7F7FB030501E89C1D1D013A
:1052100076FE010100000000000000000000000018
:10522000000000000000000000000000000000007E
:10523000000000000000000000000000000000006E
:10524000000000000000000000000000000000005E
:10525000000000000000000000000000000000004E
:10526000000000000000000000808040404020203E
:10527000005157ACA1C7C6E4E4C40303000000001A
:1052800081C3C3C3C3C3C383000000030300008002
:1052900000435C782020A0A040C0800000000000F7
:1052A00000000000000000000000000000000000FE
:1052B00000000000000000000000000000000000EE
:1052C00000000000000000000000000000000000DE
:1052D00000000000000000000000000000000000CE
:1052E00000000000000000000001030405050B0B96
:1052F0000B0B0B0B0305050402020A080A0B171718
:105300001717171313111110140404080A0A0A02BC
:10531000020605050501000202020100000000006E
:10532000000000000000000000000000000000007D
:10533000000000000000000000000000000000006D
:10534000000000000000000000000000000000005D
:10535000000000000000000000000000C0F03F035B
:10536000E03E03000000000000000000000000001C
:105370000000000000000000000000000000C078F5
:105380001C07E0380F0100000000000000000000D2
:10539000000000000000000000000000000000000D
:1053A00000000000000000000000000000000000FD
:1053B00000000000000000000000000000000000ED
:1053C00000000000000000000000000000000000DD
:1053D0000000000000000000000000E0FF0F00FCE3
:1053E0001F0000000000000000000000000000009E
:1053F000000000000000000000000080F01F03F02B
:105400007C0F010000000000000000000000000010
:10541000000000000000000000000000000000008C
:10542000000000000000000000000000000000007C
:10543000000000000000000000000000000000006C
:10544000000000000000000000000000000000005C
:105450000000000000000000000000FF0000FC7FD2
:10546000808080404040402020202000000010101C
:1054700010101010101010100000180F00383F41CD
:10548000404040008080000000000000000000005C
:10549000000000000000000000000000000000000C
:1054A00000000000000000000000000000000000FC
:1054B00000000000000000000000000000000000EC
:1054C00000000000000000000000000000000000DC
:1054D00000000000000080C030180F07000003012A
:1054E000000080C0C0C0C0C0C0C0C0C0C0C0C0C07C
:1054F000808080808080808080000000000000002C
:10550000000000000000010101020404081830C07E
:10551000000000000000000000000000000000008B
:10552000000000000000000000000000000000007B
:10553000000000000000000000000000000000006B
:10554000000000000000000000000000000000005B
:105550000000000000040F888848780000E0E0F0B8
:10556000F8FCFFFDFCFCBCBCBFAFAF8F8F1D79F911
:10557000BBFBFFFFFFFFFF3F01E0FFFFFFFF9F8639
:1055800080000000000000000000000080C0603FBC
:105590000300000000000000000000000000000008
:1055A00000000000000000000000000000000000FB
:1055B00000000000000000000000000000000000EB
:1055C00000000000000000000000000000000000DB
:1055D00000000000020705080B0BF30000FCEC2D97
:1055E0002D2D1BCBC31B13131707C7E7F7F7F7F7CF
:1055F000F7F73717030B3130B83B87E737030B0B4F
:105600000B0D050202010101010001010000000073
:10561000000000000000000000000000000000008A
:10562000000000000000000000000000000000007A
:10563000000000000000000000000000000000006A
:105640000000000000000000000000000C1C322AD6
:105650004A5A1A3AB4B4B4141C1A5B58989B9B98D3
:105660000001818180C0C0C0C0C3C3C383070707D6
:105670000100000407000807007C8780000000008C
:10568000000000000000000000000000000000001A
:10569000000000000000000000000000000000000A
:1056A00000000000000000000000000000000000FA
:1056B00000000000000000000000000000000000EA
:1056C00000000000000000000000000000000000DA
:1056D00000000000000000000101030605050B0B9F
:1056E0000B0B0B0B0B0303131713111115141414CD
:1056F000141404040404050505050C08090F000032
:105700000000000000000000000000000000000099
:105710000000000000000000000000000000000089
:105720000000000000000000000000000000000079
:105730000000000000000000000000000000000069
:105740000000000000000000000000000000000059
:105750000000000000000000000080C0301CC7E313
:10576000380C0301000000000000000000000000F1
:105770000000000000000000000000008080603891
:105780008CC7711806060100000000000000000030
:105790000000000000000000000000000000000009
:1057A00000000000000000000000000000000000F9
:1057B00000000000000000000000000000000000E9
:1057C00000000000000000000000000000000000D9
:1057D000000000000000C060380EC3701C0701000C
:1057E00000000000000000000000000000000000B9
:1057F0000000000000000080C06018C663711C0635
:105800000300000000000000000000000000000095
:105810000000000000000000000000000000000088
:105820000000000000000000000000000000000078
:105830000000000000000000000000000000000068
:105840000000000000000000000000000000000058
:10585000000080E0380FC3F87C47012030101010A2
:105860000008080808000000000000000000000018
:1058700000000808080C0603081E133120202040F1
:1058800040808000000000000000000000000000D8
:105890000000000000000000000000000000000008
:1058A00000000000000000000000000000000000F8
:1058B00000000000000000000000000000000000E8
:1058C000000000000000000000000000000000E0F8
:1058D000F01C87E084C30100008080C0E0F8F8F885
:1058E000F8F8F8B8F8F8F8F07030F0F0F0E0602070
:1058F00080C0C0C0C0808080800000000000000028
:1059000000000001030306040830E08000000000EE
:105910000000000000000000000000000000000087
:105920000000000000000000000000000000000077
:105930000000000000000000000000000000000067
:10594000000000000000000030382854D43C1B49FF
:1059500040D4C7DBF12C0EDF9FBFBF3F7F7B7B7B3B
:10596000FBF7F7F7F5F1F9FFFF771E86E2F8FCFF8A
:10597000FFFFFFFFFFFFFFFFFF8F0300000000009E
:10598000000000000000000000F01F030000000005
:105990000000000000000000000000000000000007
:1059A00000000000000000000000000000000000F7
:1059B0000000000000000000000070D0882868E0AF
:1059C000E0F0D0D0D0D0D0D0D0D0DCCFC1D81F1113
:1059D0001113120A0D0402030331787C7CFF7F7FD0
:1059E0003E1E8EC66010004008CC6E3E11090F07A7
:1059F0000303030705050505040202010101010176
:105A00000101020203030100010100000000000087
:105A10000000000000000000000000000000000086
:105A20000000000000000000000000000000000076
:105A30000000000000000000000000000001010064
:105A400002020206040C1A302C6C5C593B3938B83F
:105A5000B8BC5C5C5C1C9C9C9C9880808080808036
:105A6000808080A0A0919E2E23C000000000000036
:105A70000000000000000000000000000000000026
:105A80000000000000000000000000000000000016
:105A90000000000000000000000000000000000006
:105AA00000000000000000000000000000000000F6
:105AB00000000000000000000000000000000000E6
:105AC00000000000000000000000000000000000D6
:105AD00000000101010101010101000000000000BE
